{
  "contractName": "WaffleToken",
  "abi": [
    {
      "inputs": [],
      "stateMutability": "nonpayable",
      "type": "constructor"
    },
    {
      "anonymous": false,
      "inputs": [
        {
          "indexed": true,
          "internalType": "address",
          "name": "owner",
          "type": "address"
        },
        {
          "indexed": true,
          "internalType": "address",
          "name": "approved",
          "type": "address"
        },
        {
          "indexed": true,
          "internalType": "uint256",
          "name": "tokenId",
          "type": "uint256"
        }
      ],
      "name": "Approval",
      "type": "event"
    },
    {
      "anonymous": false,
      "inputs": [
        {
          "indexed": true,
          "internalType": "address",
          "name": "owner",
          "type": "address"
        },
        {
          "indexed": true,
          "internalType": "address",
          "name": "operator",
          "type": "address"
        },
        {
          "indexed": false,
          "internalType": "bool",
          "name": "approved",
          "type": "bool"
        }
      ],
      "name": "ApprovalForAll",
      "type": "event"
    },
    {
      "anonymous": false,
      "inputs": [
        {
          "indexed": true,
          "internalType": "address",
          "name": "previousOwner",
          "type": "address"
        },
        {
          "indexed": true,
          "internalType": "address",
          "name": "newOwner",
          "type": "address"
        }
      ],
      "name": "OwnershipTransferred",
      "type": "event"
    },
    {
      "anonymous": false,
      "inputs": [
        {
          "indexed": true,
          "internalType": "address",
          "name": "from",
          "type": "address"
        },
        {
          "indexed": true,
          "internalType": "address",
          "name": "to",
          "type": "address"
        },
        {
          "indexed": true,
          "internalType": "uint256",
          "name": "tokenId",
          "type": "uint256"
        }
      ],
      "name": "Transfer",
      "type": "event"
    },
    {
      "inputs": [
        {
          "internalType": "address",
          "name": "_to",
          "type": "address"
        },
        {
          "internalType": "uint256",
          "name": "_tokenId",
          "type": "uint256"
        }
      ],
      "name": "approve",
      "outputs": [],
      "stateMutability": "nonpayable",
      "type": "function"
    },
    {
      "inputs": [
        {
          "internalType": "address",
          "name": "_owner",
          "type": "address"
        }
      ],
      "name": "balanceOf",
      "outputs": [
        {
          "internalType": "uint256",
          "name": "_balance",
          "type": "uint256"
        }
      ],
      "stateMutability": "view",
      "type": "function",
      "constant": true
    },
    {
      "inputs": [
        {
          "internalType": "uint256",
          "name": "tokenId",
          "type": "uint256"
        }
      ],
      "name": "getApproved",
      "outputs": [
        {
          "internalType": "address",
          "name": "",
          "type": "address"
        }
      ],
      "stateMutability": "view",
      "type": "function",
      "constant": true
    },
    {
      "inputs": [
        {
          "internalType": "address",
          "name": "owner",
          "type": "address"
        },
        {
          "internalType": "address",
          "name": "operator",
          "type": "address"
        }
      ],
      "name": "isApprovedForAll",
      "outputs": [
        {
          "internalType": "bool",
          "name": "",
          "type": "bool"
        }
      ],
      "stateMutability": "view",
      "type": "function",
      "constant": true
    },
    {
      "inputs": [],
      "name": "name",
      "outputs": [
        {
          "internalType": "string",
          "name": "",
          "type": "string"
        }
      ],
      "stateMutability": "view",
      "type": "function",
      "constant": true
    },
    {
      "inputs": [],
      "name": "owner",
      "outputs": [
        {
          "internalType": "address",
          "name": "",
          "type": "address"
        }
      ],
      "stateMutability": "view",
      "type": "function",
      "constant": true
    },
    {
      "inputs": [
        {
          "internalType": "uint256",
          "name": "_tokenId",
          "type": "uint256"
        }
      ],
      "name": "ownerOf",
      "outputs": [
        {
          "internalType": "address",
          "name": "_owner",
          "type": "address"
        }
      ],
      "stateMutability": "view",
      "type": "function",
      "constant": true
    },
    {
      "inputs": [],
      "name": "renounceOwnership",
      "outputs": [],
      "stateMutability": "nonpayable",
      "type": "function"
    },
    {
      "inputs": [
        {
          "internalType": "address",
          "name": "from",
          "type": "address"
        },
        {
          "internalType": "address",
          "name": "to",
          "type": "address"
        },
        {
          "internalType": "uint256",
          "name": "tokenId",
          "type": "uint256"
        }
      ],
      "name": "safeTransferFrom",
      "outputs": [],
      "stateMutability": "nonpayable",
      "type": "function"
    },
    {
      "inputs": [
        {
          "internalType": "address",
          "name": "from",
          "type": "address"
        },
        {
          "internalType": "address",
          "name": "to",
          "type": "address"
        },
        {
          "internalType": "uint256",
          "name": "tokenId",
          "type": "uint256"
        },
        {
          "internalType": "bytes",
          "name": "_data",
          "type": "bytes"
        }
      ],
      "name": "safeTransferFrom",
      "outputs": [],
      "stateMutability": "nonpayable",
      "type": "function"
    },
    {
      "inputs": [
        {
          "internalType": "address",
          "name": "operator",
          "type": "address"
        },
        {
          "internalType": "bool",
          "name": "approved",
          "type": "bool"
        }
      ],
      "name": "setApprovalForAll",
      "outputs": [],
      "stateMutability": "nonpayable",
      "type": "function"
    },
    {
      "inputs": [
        {
          "internalType": "string",
          "name": "baseURI",
          "type": "string"
        }
      ],
      "name": "setBaseURI",
      "outputs": [],
      "stateMutability": "nonpayable",
      "type": "function"
    },
    {
      "inputs": [
        {
          "internalType": "bytes4",
          "name": "interfaceId",
          "type": "bytes4"
        }
      ],
      "name": "supportsInterface",
      "outputs": [
        {
          "internalType": "bool",
          "name": "",
          "type": "bool"
        }
      ],
      "stateMutability": "view",
      "type": "function",
      "constant": true
    },
    {
      "inputs": [],
      "name": "symbol",
      "outputs": [
        {
          "internalType": "string",
          "name": "",
          "type": "string"
        }
      ],
      "stateMutability": "view",
      "type": "function",
      "constant": true
    },
    {
      "inputs": [
        {
          "internalType": "uint256",
          "name": "_tokenId",
          "type": "uint256"
        }
      ],
      "name": "takeOwnership",
      "outputs": [],
      "stateMutability": "nonpayable",
      "type": "function"
    },
    {
      "inputs": [
        {
          "internalType": "uint256",
          "name": "tokenId",
          "type": "uint256"
        }
      ],
      "name": "tokenURI",
      "outputs": [
        {
          "internalType": "string",
          "name": "",
          "type": "string"
        }
      ],
      "stateMutability": "view",
      "type": "function",
      "constant": true
    },
    {
      "inputs": [
        {
          "internalType": "address",
          "name": "_to",
          "type": "address"
        },
        {
          "internalType": "uint256",
          "name": "_tokenId",
          "type": "uint256"
        }
      ],
      "name": "transfer",
      "outputs": [],
      "stateMutability": "nonpayable",
      "type": "function"
    },
    {
      "inputs": [
        {
          "internalType": "address",
          "name": "from",
          "type": "address"
        },
        {
          "internalType": "address",
          "name": "to",
          "type": "address"
        },
        {
          "internalType": "uint256",
          "name": "tokenId",
          "type": "uint256"
        }
      ],
      "name": "transferFrom",
      "outputs": [],
      "stateMutability": "nonpayable",
      "type": "function"
    },
    {
      "inputs": [
        {
          "internalType": "address",
          "name": "newOwner",
          "type": "address"
        }
      ],
      "name": "transferOwnership",
      "outputs": [],
      "stateMutability": "nonpayable",
      "type": "function"
    },
    {
      "inputs": [
        {
          "internalType": "uint256",
          "name": "",
          "type": "uint256"
        }
      ],
      "name": "waffleToOwner",
      "outputs": [
        {
          "internalType": "address",
          "name": "",
          "type": "address"
        }
      ],
      "stateMutability": "view",
      "type": "function",
      "constant": true
    },
    {
      "inputs": [
        {
          "internalType": "uint256",
          "name": "",
          "type": "uint256"
        }
      ],
      "name": "waffles",
      "outputs": [
        {
          "internalType": "string",
          "name": "title",
          "type": "string"
        },
        {
          "internalType": "uint8",
          "name": "size",
          "type": "uint8"
        },
        {
          "internalType": "uint8",
          "name": "baseColor",
          "type": "uint8"
        },
        {
          "internalType": "uint256",
          "name": "toppings",
          "type": "uint256"
        }
      ],
      "stateMutability": "view",
      "type": "function",
      "constant": true
    },
    {
      "inputs": [
        {
          "internalType": "string",
          "name": "title",
          "type": "string"
        }
      ],
      "name": "claim",
      "outputs": [],
      "stateMutability": "payable",
      "type": "function",
      "payable": true
    }
  ],
  "bytecode": "0x60806040523480156200001157600080fd5b506040518060400160405280600b81526020017f576166666c65546f6b656e0000000000000000000000000000000000000000008152506040518060400160405280600481526020017f5746544b000000000000000000000000000000000000000000000000000000008152506200009e620000926200016b60201b60201c565b6200017360201b60201c565b8160059080519060200190620000b692919062000adf565b508060069080519060200190620000cf92919062000adf565b505050620000f2604051806020016040528060008152506200023760201b60201c565b60005b600a8160ff161015620001645760006040518060400160405280600c81526020017f776166666c65204e46542023000000000000000000000000000000000000000081525090506200014d81620002e260201b60201c565b5080806200015b9062000c8e565b915050620000f5565b5062001309565b600033905090565b60008060009054906101000a900473ffffffffffffffffffffffffffffffffffffffff169050816000806101000a81548173ffffffffffffffffffffffffffffffffffffffff021916908373ffffffffffffffffffffffffffffffffffffffff1602179055508173ffffffffffffffffffffffffffffffffffffffff168173ffffffffffffffffffffffffffffffffffffffff167f8be0079c531659141344cd1fd0a4f28419497f9722a3daafe3b4186f6b6457e060405160405180910390a35050565b620002476200016b60201b60201c565b73ffffffffffffffffffffffffffffffffffffffff166200026d6200045160201b60201c565b73ffffffffffffffffffffffffffffffffffffffff1614620002c6576040517f08c379a0000000000000000000000000000000000000000000000000000000008152600401620002bd9062000d1e565b60405180910390fd5b8060049080519060200190620002de92919062000adf565b5050565b600080620002ef62000b70565b620002f962000b70565b60006200030c866200047a60201b60201c565b809550819650829750839850849950505050505060016040518060c001604052808881526020018760ff1681526020018660ff16815260200185815260200184815260200183815250908060018154018082558091505060019003906000526020600020906005020160009091909190915060008201518160000190805190602001906200039c92919062000adf565b5060208201518160010160006101000a81548160ff021916908360ff16021790555060408201518160010160016101000a81548160ff021916908360ff160217905550606082015181600201906002620003f892919062000b92565b506080820151816003019060026200041292919062000b92565b5060a08201518160040155505060006001808054905062000434919062000d4a565b9050620004483382620005c860201b60201c565b50505050505050565b60008060009054906101000a900473ffffffffffffffffffffffffffffffffffffffff16905090565b6000806200048762000b70565b6200049162000b70565b600080600190506000600190506000620004b189620005ee60201b60201c565b9050620004bd62000b70565b620004ce8a6200062760201b60201c565b81600060028110620004e557620004e462000d85565b5b602002019060ff16908160ff1681525050620005078a6200062760201b60201c565b816001600281106200051e576200051d62000d85565b5b602002019060ff16908160ff16815250506200053962000b70565b6200054a8b6200062760201b60201c565b8160006002811062000561576200056062000d85565b5b602002019060ff16908160ff1681525050620005838b6200062760201b60201c565b816001600281106200059a576200059962000d85565b5b602002019060ff16908160ff1681525050848483838699509950995099509950505050505091939590929450565b620005ea8282604051806020016040528060008152506200065d60201b60201c565b5050565b6000423383604051602001620006079392919062000e9d565b6040516020818303038152906040528051906020012060001c9050919050565b6000600160056200063e84620005ee60201b60201c565b6200064a919062000f10565b62000656919062000f48565b9050919050565b6200066f8383620006cb60201b60201c565b620006846000848484620008b160201b60201c565b620006c6576040517f08c379a0000000000000000000000000000000000000000000000000000000008152600401620006bd9062000ffc565b60405180910390fd5b505050565b600073ffffffffffffffffffffffffffffffffffffffff168273ffffffffffffffffffffffffffffffffffffffff1614156200073e576040517f08c379a000000000000000000000000000000000000000000000000000000000815260040162000735906200106e565b60405180910390fd5b6200074f8162000a5b60201b60201c565b1562000792576040517f08c379a00000000000000000000000000000000000000000000000000000000081526004016200078990620010e0565b60405180910390fd5b620007a66000838362000ac760201b60201c565b6001600860008473ffffffffffffffffffffffffffffffffffffffff1673ffffffffffffffffffffffffffffffffffffffff1681526020019081526020016000206000828254620007f8919062001102565b92505081905550816007600083815260200190815260200160002060006101000a81548173ffffffffffffffffffffffffffffffffffffffff021916908373ffffffffffffffffffffffffffffffffffffffff160217905550808273ffffffffffffffffffffffffffffffffffffffff16600073ffffffffffffffffffffffffffffffffffffffff167fddf252ad1be2c89b69c2b068fc378daa952ba7f163c4a11628f55a4df523b3ef60405160405180910390a45050565b6000620008df8473ffffffffffffffffffffffffffffffffffffffff1662000acc60201b620010f01760201c565b1562000a4e578373ffffffffffffffffffffffffffffffffffffffff1663150b7a02620009116200016b60201b60201c565b8786866040518563ffffffff1660e01b8152600401620009359493929190620011bc565b6020604051808303816000875af19250505080156200097457506040513d601f19601f8201168201806040525081019062000971919062001272565b60015b620009fd573d8060008114620009a7576040519150601f19603f3d011682016040523d82523d6000602084013e620009ac565b606091505b50600081511415620009f5576040517f08c379a0000000000000000000000000000000000000000000000000000000008152600401620009ec9062000ffc565b60405180910390fd5b805181602001fd5b63150b7a0260e01b7bffffffffffffffffffffffffffffffffffffffffffffffffffffffff1916817bffffffffffffffffffffffffffffffffffffffffffffffffffffffff19161491505062000a53565b600190505b949350505050565b60008073ffffffffffffffffffffffffffffffffffffffff166007600084815260200190815260200160002060009054906101000a900473ffffffffffffffffffffffffffffffffffffffff1673ffffffffffffffffffffffffffffffffffffffff1614159050919050565b505050565b600080823b905060008111915050919050565b82805462000aed90620012d3565b90600052602060002090601f01602090048101928262000b11576000855562000b5d565b82601f1062000b2c57805160ff191683800117855562000b5d565b8280016001018555821562000b5d579182015b8281111562000b5c57825182559160200191906001019062000b3f565b5b50905062000b6c919062000c33565b5090565b6040518060400160405280600290602082028036833780820191505090505090565b826002601f0160209004810192821562000c205791602002820160005b8382111562000bef57835183826101000a81548160ff021916908360ff160217905550926020019260010160208160000104928301926001030262000baf565b801562000c1e5782816101000a81549060ff021916905560010160208160000104928301926001030262000bef565b505b50905062000c2f919062000c33565b5090565b5b8082111562000c4e57600081600090555060010162000c34565b5090565b7f4e487b7100000000000000000000000000000000000000000000000000000000600052601160045260246000fd5b600060ff82169050919050565b600062000c9b8262000c81565b915060ff82141562000cb25762000cb162000c52565b5b600182019050919050565b600082825260208201905092915050565b7f4f776e61626c653a2063616c6c6572206973206e6f7420746865206f776e6572600082015250565b600062000d0660208362000cbd565b915062000d138262000cce565b602082019050919050565b6000602082019050818103600083015262000d398162000cf7565b9050919050565b6000819050919050565b600062000d578262000d40565b915062000d648362000d40565b92508282101562000d7a5762000d7962000c52565b5b828203905092915050565b7f4e487b7100000000000000000000000000000000000000000000000000000000600052603260045260246000fd5b62000dbf8162000d40565b82525050565b600073ffffffffffffffffffffffffffffffffffffffff82169050919050565b600062000df28262000dc5565b9050919050565b62000e048162000de5565b82525050565b600081519050919050565b60005b8381101562000e3557808201518184015260208101905062000e18565b8381111562000e45576000848401525b50505050565b6000601f19601f8301169050919050565b600062000e698262000e0a565b62000e75818562000cbd565b935062000e8781856020860162000e15565b62000e928162000e4b565b840191505092915050565b600060608201905062000eb4600083018662000db4565b62000ec3602083018562000df9565b818103604083015262000ed7818462000e5c565b9050949350505050565b7f4e487b7100000000000000000000000000000000000000000000000000000000600052601260045260246000fd5b600062000f1d8262000c81565b915062000f2a8362000c81565b92508262000f3d5762000f3c62000ee1565b5b828206905092915050565b600062000f558262000c81565b915062000f628362000c81565b92508260ff0382111562000f7b5762000f7a62000c52565b5b828201905092915050565b7f4552433732313a207472616e7366657220746f206e6f6e20455243373231526560008201527f63656976657220696d706c656d656e7465720000000000000000000000000000602082015250565b600062000fe460328362000cbd565b915062000ff18262000f86565b604082019050919050565b60006020820190508181036000830152620010178162000fd5565b9050919050565b7f4552433732313a206d696e7420746f20746865207a65726f2061646472657373600082015250565b60006200105660208362000cbd565b915062001063826200101e565b602082019050919050565b60006020820190508181036000830152620010898162001047565b9050919050565b7f4552433732313a20746f6b656e20616c7265616479206d696e74656400000000600082015250565b6000620010c8601c8362000cbd565b9150620010d58262001090565b602082019050919050565b60006020820190508181036000830152620010fb81620010b9565b9050919050565b60006200110f8262000d40565b91506200111c8362000d40565b9250827fffffffffffffffffffffffffffffffffffffffffffffffffffffffffffffffff0382111562001154576200115362000c52565b5b828201905092915050565b600081519050919050565b600082825260208201905092915050565b600062001188826200115f565b6200119481856200116a565b9350620011a681856020860162000e15565b620011b18162000e4b565b840191505092915050565b6000608082019050620011d3600083018762000df9565b620011e2602083018662000df9565b620011f1604083018562000db4565b81810360608301526200120581846200117b565b905095945050505050565b600080fd5b60007fffffffff0000000000000000000000000000000000000000000000000000000082169050919050565b6200124c8162001215565b81146200125857600080fd5b50565b6000815190506200126c8162001241565b92915050565b6000602082840312156200128b576200128a62001210565b5b60006200129b848285016200125b565b91505092915050565b7f4e487b7100000000000000000000000000000000000000000000000000000000600052602260045260246000fd5b60006002820490506001821680620012ec57607f821691505b60208210811415620013035762001302620012a4565b5b50919050565b61333980620013196000396000f3fe6080604052600436106101355760003560e01c80638da5cb5b116100ab578063b2e6ceeb1161006f578063b2e6ceeb14610439578063b88d4fde14610462578063c87b56dd1461048b578063e985e9c5146104c8578063f2fde38b14610505578063f3fe12c91461052e57610135565b80638da5cb5b1461035457806395d89b411461037f578063a22cb465146103aa578063a9059cbb146103d3578063afd805dc146103fc57610135565b8063254f3bce116100fd578063254f3bce1461023157806342842e0e1461027157806355f804b31461029a5780636352211e146102c357806370a0823114610300578063715018a61461033d57610135565b806301ffc9a71461013a57806306fdde0314610177578063081812fc146101a2578063095ea7b3146101df57806323b872dd14610208575b600080fd5b34801561014657600080fd5b50610161600480360381019061015c9190612137565b61054a565b60405161016e919061217f565b60405180910390f35b34801561018357600080fd5b5061018c61062c565b6040516101999190612233565b60405180910390f35b3480156101ae57600080fd5b506101c960048036038101906101c4919061228b565b6106be565b6040516101d691906122f9565b60405180910390f35b3480156101eb57600080fd5b5061020660048036038101906102019190612340565b610743565b005b34801561021457600080fd5b5061022f600480360381019061022a9190612380565b610861565b005b34801561023d57600080fd5b506102586004803603810190610253919061228b565b6108c1565b60405161026894939291906123fe565b60405180910390f35b34801561027d57600080fd5b5061029860048036038101906102939190612380565b6109a3565b005b3480156102a657600080fd5b506102c160048036038101906102bc919061257f565b6109c3565b005b3480156102cf57600080fd5b506102ea60048036038101906102e5919061228b565b610a59565b6040516102f791906122f9565b60405180910390f35b34801561030c57600080fd5b50610327600480360381019061032291906125c8565b610a96565b60405161033491906125f5565b60405180910390f35b34801561034957600080fd5b50610352610adf565b005b34801561036057600080fd5b50610369610b67565b60405161037691906122f9565b60405180910390f35b34801561038b57600080fd5b50610394610b90565b6040516103a19190612233565b60405180910390f35b3480156103b657600080fd5b506103d160048036038101906103cc919061263c565b610c22565b005b3480156103df57600080fd5b506103fa60048036038101906103f59190612340565b610c38565b005b34801561040857600080fd5b50610423600480360381019061041e919061228b565b610cb4565b60405161043091906122f9565b60405180910390f35b34801561044557600080fd5b50610460600480360381019061045b919061228b565b610ce7565b005b34801561046e57600080fd5b506104896004803603810190610484919061271d565b610d6e565b005b34801561049757600080fd5b506104b260048036038101906104ad919061228b565b610dd0565b6040516104bf9190612233565b60405180910390f35b3480156104d457600080fd5b506104ef60048036038101906104ea91906127a0565b610e77565b6040516104fc919061217f565b60405180910390f35b34801561051157600080fd5b5061052c600480360381019061052791906125c8565b610f0b565b005b61054860048036038101906105439190612840565b611003565b005b60007f80ac58cd000000000000000000000000000000000000000000000000000000007bffffffffffffffffffffffffffffffffffffffffffffffffffffffff1916827bffffffffffffffffffffffffffffffffffffffffffffffffffffffff1916148061061557507f5b5e139f000000000000000000000000000000000000000000000000000000007bffffffffffffffffffffffffffffffffffffffffffffffffffffffff1916827bffffffffffffffffffffffffffffffffffffffffffffffffffffffff1916145b80610625575061062482611103565b5b9050919050565b60606005805461063b906128bc565b80601f0160208091040260200160405190810160405280929190818152602001828054610667906128bc565b80156106b45780601f10610689576101008083540402835291602001916106b4565b820191906000526020600020905b81548152906001019060200180831161069757829003601f168201915b5050505050905090565b60006106c98261116d565b610708576040517f08c379a00000000000000000000000000000000000000000000000000000000081526004016106ff90612960565b60405180910390fd5b6009600083815260200190815260200160002060009054906101000a900473ffffffffffffffffffffffffffffffffffffffff169050919050565b806002600082815260200190815260200160002060009054906101000a900473ffffffffffffffffffffffffffffffffffffffff1673ffffffffffffffffffffffffffffffffffffffff163373ffffffffffffffffffffffffffffffffffffffff16146107af57600080fd5b82600b600084815260200190815260200160002060006101000a81548173ffffffffffffffffffffffffffffffffffffffff021916908373ffffffffffffffffffffffffffffffffffffffff160217905550818373ffffffffffffffffffffffffffffffffffffffff163373ffffffffffffffffffffffffffffffffffffffff167f8c5be1e5ebec7d5bd14f71427d1e84f3dd0314c0f7b2291e5b200ac8c7c3b92560405160405180910390a4505050565b61087261086c6111d9565b826111e1565b6108b1576040517f08c379a00000000000000000000000000000000000000000000000000000000081526004016108a8906129f2565b60405180910390fd5b6108bc8383836112bf565b505050565b600181815481106108d157600080fd5b90600052602060002090600502016000915090508060000180546108f4906128bc565b80601f0160208091040260200160405190810160405280929190818152602001828054610920906128bc565b801561096d5780601f106109425761010080835404028352916020019161096d565b820191906000526020600020905b81548152906001019060200180831161095057829003601f168201915b5050505050908060010160009054906101000a900460ff16908060010160019054906101000a900460ff16908060040154905084565b6109be83838360405180602001604052806000815250610d6e565b505050565b6109cb6111d9565b73ffffffffffffffffffffffffffffffffffffffff166109e9610b67565b73ffffffffffffffffffffffffffffffffffffffff1614610a3f576040517f08c379a0000000000000000000000000000000000000000000000000000000008152600401610a3690612a5e565b60405180910390fd5b8060049080519060200190610a55929190611f6c565b5050565b60006002600083815260200190815260200160002060009054906101000a900473ffffffffffffffffffffffffffffffffffffffff169050919050565b6000600360008373ffffffffffffffffffffffffffffffffffffffff1673ffffffffffffffffffffffffffffffffffffffff168152602001908152602001600020549050919050565b610ae76111d9565b73ffffffffffffffffffffffffffffffffffffffff16610b05610b67565b73ffffffffffffffffffffffffffffffffffffffff1614610b5b576040517f08c379a0000000000000000000000000000000000000000000000000000000008152600401610b5290612a5e565b60405180910390fd5b610b65600061141b565b565b60008060009054906101000a900473ffffffffffffffffffffffffffffffffffffffff16905090565b606060068054610b9f906128bc565b80601f0160208091040260200160405190810160405280929190818152602001828054610bcb906128bc565b8015610c185780601f10610bed57610100808354040283529160200191610c18565b820191906000526020600020905b815481529060010190602001808311610bfb57829003601f168201915b5050505050905090565b610c34610c2d6111d9565b83836114df565b5050565b806002600082815260200190815260200160002060009054906101000a900473ffffffffffffffffffffffffffffffffffffffff1673ffffffffffffffffffffffffffffffffffffffff163373ffffffffffffffffffffffffffffffffffffffff1614610ca457600080fd5b610caf3384846112bf565b505050565b60026020528060005260406000206000915054906101000a900473ffffffffffffffffffffffffffffffffffffffff1681565b3373ffffffffffffffffffffffffffffffffffffffff16600b600083815260200190815260200160002060009054906101000a900473ffffffffffffffffffffffffffffffffffffffff1673ffffffffffffffffffffffffffffffffffffffff1614610d5257600080fd5b6000610d5d82610a59565b9050610d6a8133846112bf565b5050565b610d7f610d796111d9565b836111e1565b610dbe576040517f08c379a0000000000000000000000000000000000000000000000000000000008152600401610db5906129f2565b60405180910390fd5b610dca8484848461164c565b50505050565b6060610ddb8261116d565b610e1a576040517f08c379a0000000000000000000000000000000000000000000000000000000008152600401610e1190612af0565b60405180910390fd5b6000610e246116a8565b90506000815111610e445760405180602001604052806000815250610e6f565b80610e4e846116bf565b604051602001610e5f929190612b4c565b6040516020818303038152906040525b915050919050565b6000600a60008473ffffffffffffffffffffffffffffffffffffffff1673ffffffffffffffffffffffffffffffffffffffff16815260200190815260200160002060008373ffffffffffffffffffffffffffffffffffffffff1673ffffffffffffffffffffffffffffffffffffffff16815260200190815260200160002060009054906101000a900460ff16905092915050565b610f136111d9565b73ffffffffffffffffffffffffffffffffffffffff16610f31610b67565b73ffffffffffffffffffffffffffffffffffffffff1614610f87576040517f08c379a0000000000000000000000000000000000000000000000000000000008152600401610f7e90612a5e565b60405180910390fd5b600073ffffffffffffffffffffffffffffffffffffffff168173ffffffffffffffffffffffffffffffffffffffff161415610ff7576040517f08c379a0000000000000000000000000000000000000000000000000000000008152600401610fee90612be2565b60405180910390fd5b6110008161141b565b50565b6509184e72a000341461104b576040517f08c379a000000000000000000000000000000000000000000000000000000000815260040161104290612c74565b60405180910390fd5b61109882828080601f016020809104026020016040519081016040528093929190818152602001838380828437600081840152601f19601f82011690508083019250505050505050611820565b6110a0610b67565b73ffffffffffffffffffffffffffffffffffffffff166108fc6509184e72a0009081150290604051600060405180830381858888f193505050501580156110eb573d6000803e3d6000fd5b505050565b600080823b905060008111915050919050565b60007f01ffc9a7000000000000000000000000000000000000000000000000000000007bffffffffffffffffffffffffffffffffffffffffffffffffffffffff1916827bffffffffffffffffffffffffffffffffffffffffffffffffffffffff1916149050919050565b60008073ffffffffffffffffffffffffffffffffffffffff166007600084815260200190815260200160002060009054906101000a900473ffffffffffffffffffffffffffffffffffffffff1673ffffffffffffffffffffffffffffffffffffffff1614159050919050565b600033905090565b60006111ec8261116d565b61122b576040517f08c379a000000000000000000000000000000000000000000000000000000000815260040161122290612d06565b60405180910390fd5b600061123683611973565b90508073ffffffffffffffffffffffffffffffffffffffff168473ffffffffffffffffffffffffffffffffffffffff1614806112a557508373ffffffffffffffffffffffffffffffffffffffff1661128d846106be565b73ffffffffffffffffffffffffffffffffffffffff16145b806112b657506112b58185610e77565b5b91505092915050565b600360008373ffffffffffffffffffffffffffffffffffffffff1673ffffffffffffffffffffffffffffffffffffffff168152602001908152602001600020600081548092919061130f90612d55565b9190505550600360008473ffffffffffffffffffffffffffffffffffffffff1673ffffffffffffffffffffffffffffffffffffffff168152602001908152602001600020600081548092919061136490612d9e565b9190505550816002600083815260200190815260200160002060006101000a81548173ffffffffffffffffffffffffffffffffffffffff021916908373ffffffffffffffffffffffffffffffffffffffff160217905550808273ffffffffffffffffffffffffffffffffffffffff168473ffffffffffffffffffffffffffffffffffffffff167fddf252ad1be2c89b69c2b068fc378daa952ba7f163c4a11628f55a4df523b3ef60405160405180910390a4505050565b60008060009054906101000a900473ffffffffffffffffffffffffffffffffffffffff169050816000806101000a81548173ffffffffffffffffffffffffffffffffffffffff021916908373ffffffffffffffffffffffffffffffffffffffff1602179055508173ffffffffffffffffffffffffffffffffffffffff168173ffffffffffffffffffffffffffffffffffffffff167f8be0079c531659141344cd1fd0a4f28419497f9722a3daafe3b4186f6b6457e060405160405180910390a35050565b8173ffffffffffffffffffffffffffffffffffffffff168373ffffffffffffffffffffffffffffffffffffffff16141561154e576040517f08c379a000000000000000000000000000000000000000000000000000000000815260040161154590612e14565b60405180910390fd5b80600a60008573ffffffffffffffffffffffffffffffffffffffff1673ffffffffffffffffffffffffffffffffffffffff16815260200190815260200160002060008473ffffffffffffffffffffffffffffffffffffffff1673ffffffffffffffffffffffffffffffffffffffff16815260200190815260200160002060006101000a81548160ff0219169083151502179055508173ffffffffffffffffffffffffffffffffffffffff168373ffffffffffffffffffffffffffffffffffffffff167f17307eab39ab6107e8899845ad3d59bd9653f200f220920489ca2b5937696c318360405161163f919061217f565b60405180910390a3505050565b6116578484846112bf565b61166384848484611a25565b6116a2576040517f08c379a000000000000000000000000000000000000000000000000000000000815260040161169990612ea6565b60405180910390fd5b50505050565b606060405180602001604052806000815250905090565b60606000821415611707576040518060400160405280600181526020017f3000000000000000000000000000000000000000000000000000000000000000815250905061181b565b600082905060005b6000821461173957808061172290612d55565b915050600a826117329190612ef5565b915061170f565b60008167ffffffffffffffff81111561175557611754612454565b5b6040519080825280601f01601f1916602001820160405280156117875781602001600182028036833780820191505090505b5090505b60008514611814576001826117a09190612f26565b9150600a856117af9190612f5a565b60306117bb9190612f8b565b60f81b8183815181106117d1576117d0612fe1565b5b60200101907effffffffffffffffffffffffffffffffffffffffffffffffffffffffffffff1916908160001a905350600a8561180d9190612ef5565b945061178b565b8093505050505b919050565b60008061182b611ff2565b611833611ff2565b600061183e86611bad565b809550819650829750839850849950505050505060016040518060c001604052808881526020018760ff1681526020018660ff16815260200185815260200184815260200183815250908060018154018082558091505060019003906000526020600020906005020160009091909190915060008201518160000190805190602001906118cc929190611f6c565b5060208201518160010160006101000a81548160ff021916908360ff16021790555060408201518160010160016101000a81548160ff021916908360ff160217905550606082015181600201906002611926929190612014565b5060808201518160030190600261193e929190612014565b5060a08201518160040155505060006001808054905061195e9190612f26565b905061196a3382611cbf565b50505050505050565b6000806007600084815260200190815260200160002060009054906101000a900473ffffffffffffffffffffffffffffffffffffffff169050600073ffffffffffffffffffffffffffffffffffffffff168173ffffffffffffffffffffffffffffffffffffffff161415611a1c576040517f08c379a0000000000000000000000000000000000000000000000000000000008152600401611a1390613082565b60405180910390fd5b80915050919050565b6000611a468473ffffffffffffffffffffffffffffffffffffffff166110f0565b15611ba0578373ffffffffffffffffffffffffffffffffffffffff1663150b7a02611a6f6111d9565b8786866040518563ffffffff1660e01b8152600401611a9194939291906130f7565b6020604051808303816000875af1925050508015611acd57506040513d601f19601f82011682018060405250810190611aca9190613158565b60015b611b50573d8060008114611afd576040519150601f19603f3d011682016040523d82523d6000602084013e611b02565b606091505b50600081511415611b48576040517f08c379a0000000000000000000000000000000000000000000000000000000008152600401611b3f90612ea6565b60405180910390fd5b805181602001fd5b63150b7a0260e01b7bffffffffffffffffffffffffffffffffffffffffffffffffffffffff1916817bffffffffffffffffffffffffffffffffffffffffffffffffffffffff191614915050611ba5565b600190505b949350505050565b600080611bb8611ff2565b611bc0611ff2565b600080600190506000600190506000611bd889611cdd565b9050611be2611ff2565b611beb8a611d14565b81600060028110611bff57611bfe612fe1565b5b602002019060ff16908160ff1681525050611c198a611d14565b81600160028110611c2d57611c2c612fe1565b5b602002019060ff16908160ff1681525050611c46611ff2565b611c4f8b611d14565b81600060028110611c6357611c62612fe1565b5b602002019060ff16908160ff1681525050611c7d8b611d14565b81600160028110611c9157611c90612fe1565b5b602002019060ff16908160ff1681525050848483838699509950995099509950505050505091939590929450565b611cd9828260405180602001604052806000815250611d3e565b5050565b6000423383604051602001611cf493929190613185565b6040516020818303038152906040528051906020012060001c9050919050565b600060016005611d2384611cdd565b611d2d91906131c3565b611d3791906131f4565b9050919050565b611d488383611d99565b611d556000848484611a25565b611d94576040517f08c379a0000000000000000000000000000000000000000000000000000000008152600401611d8b90612ea6565b60405180910390fd5b505050565b600073ffffffffffffffffffffffffffffffffffffffff168273ffffffffffffffffffffffffffffffffffffffff161415611e09576040517f08c379a0000000000000000000000000000000000000000000000000000000008152600401611e0090613277565b60405180910390fd5b611e128161116d565b15611e52576040517f08c379a0000000000000000000000000000000000000000000000000000000008152600401611e49906132e3565b60405180910390fd5b611e5e60008383611f67565b6001600860008473ffffffffffffffffffffffffffffffffffffffff1673ffffffffffffffffffffffffffffffffffffffff1681526020019081526020016000206000828254611eae9190612f8b565b92505081905550816007600083815260200190815260200160002060006101000a81548173ffffffffffffffffffffffffffffffffffffffff021916908373ffffffffffffffffffffffffffffffffffffffff160217905550808273ffffffffffffffffffffffffffffffffffffffff16600073ffffffffffffffffffffffffffffffffffffffff167fddf252ad1be2c89b69c2b068fc378daa952ba7f163c4a11628f55a4df523b3ef60405160405180910390a45050565b505050565b828054611f78906128bc565b90600052602060002090601f016020900481019282611f9a5760008555611fe1565b82601f10611fb357805160ff1916838001178555611fe1565b82800160010185558215611fe1579182015b82811115611fe0578251825591602001919060010190611fc5565b5b509050611fee91906120ae565b5090565b6040518060400160405280600290602082028036833780820191505090505090565b826002601f0160209004810192821561209d5791602002820160005b8382111561206e57835183826101000a81548160ff021916908360ff1602179055509260200192600101602081600001049283019260010302612030565b801561209b5782816101000a81549060ff021916905560010160208160000104928301926001030261206e565b505b5090506120aa91906120ae565b5090565b5b808211156120c75760008160009055506001016120af565b5090565b6000604051905090565b600080fd5b600080fd5b60007fffffffff0000000000000000000000000000000000000000000000000000000082169050919050565b612114816120df565b811461211f57600080fd5b50565b6000813590506121318161210b565b92915050565b60006020828403121561214d5761214c6120d5565b5b600061215b84828501612122565b91505092915050565b60008115159050919050565b61217981612164565b82525050565b60006020820190506121946000830184612170565b92915050565b600081519050919050565b600082825260208201905092915050565b60005b838110156121d45780820151818401526020810190506121b9565b838111156121e3576000848401525b50505050565b6000601f19601f8301169050919050565b60006122058261219a565b61220f81856121a5565b935061221f8185602086016121b6565b612228816121e9565b840191505092915050565b6000602082019050818103600083015261224d81846121fa565b905092915050565b6000819050919050565b61226881612255565b811461227357600080fd5b50565b6000813590506122858161225f565b92915050565b6000602082840312156122a1576122a06120d5565b5b60006122af84828501612276565b91505092915050565b600073ffffffffffffffffffffffffffffffffffffffff82169050919050565b60006122e3826122b8565b9050919050565b6122f3816122d8565b82525050565b600060208201905061230e60008301846122ea565b92915050565b61231d816122d8565b811461232857600080fd5b50565b60008135905061233a81612314565b92915050565b60008060408385031215612357576123566120d5565b5b60006123658582860161232b565b925050602061237685828601612276565b9150509250929050565b600080600060608486031215612399576123986120d5565b5b60006123a78682870161232b565b93505060206123b88682870161232b565b92505060406123c986828701612276565b9150509250925092565b600060ff82169050919050565b6123e9816123d3565b82525050565b6123f881612255565b82525050565b6000608082019050818103600083015261241881876121fa565b905061242760208301866123e0565b61243460408301856123e0565b61244160608301846123ef565b95945050505050565b600080fd5b600080fd5b7f4e487b7100000000000000000000000000000000000000000000000000000000600052604160045260246000fd5b61248c826121e9565b810181811067ffffffffffffffff821117156124ab576124aa612454565b5b80604052505050565b60006124be6120cb565b90506124ca8282612483565b919050565b600067ffffffffffffffff8211156124ea576124e9612454565b5b6124f3826121e9565b9050602081019050919050565b82818337600083830152505050565b600061252261251d846124cf565b6124b4565b90508281526020810184848401111561253e5761253d61244f565b5b612549848285612500565b509392505050565b600082601f8301126125665761256561244a565b5b813561257684826020860161250f565b91505092915050565b600060208284031215612595576125946120d5565b5b600082013567ffffffffffffffff8111156125b3576125b26120da565b5b6125bf84828501612551565b91505092915050565b6000602082840312156125de576125dd6120d5565b5b60006125ec8482850161232b565b91505092915050565b600060208201905061260a60008301846123ef565b92915050565b61261981612164565b811461262457600080fd5b50565b60008135905061263681612610565b92915050565b60008060408385031215612653576126526120d5565b5b60006126618582860161232b565b925050602061267285828601612627565b9150509250929050565b600067ffffffffffffffff82111561269757612696612454565b5b6126a0826121e9565b9050602081019050919050565b60006126c06126bb8461267c565b6124b4565b9050828152602081018484840111156126dc576126db61244f565b5b6126e7848285612500565b509392505050565b600082601f8301126127045761270361244a565b5b81356127148482602086016126ad565b91505092915050565b60008060008060808587031215612737576127366120d5565b5b60006127458782880161232b565b94505060206127568782880161232b565b935050604061276787828801612276565b925050606085013567ffffffffffffffff811115612788576127876120da565b5b612794878288016126ef565b91505092959194509250565b600080604083850312156127b7576127b66120d5565b5b60006127c58582860161232b565b92505060206127d68582860161232b565b9150509250929050565b600080fd5b600080fd5b60008083601f840112612800576127ff61244a565b5b8235905067ffffffffffffffff81111561281d5761281c6127e0565b5b602083019150836001820283011115612839576128386127e5565b5b9250929050565b60008060208385031215612857576128566120d5565b5b600083013567ffffffffffffffff811115612875576128746120da565b5b612881858286016127ea565b92509250509250929050565b7f4e487b7100000000000000000000000000000000000000000000000000000000600052602260045260246000fd5b600060028204905060018216806128d457607f821691505b602082108114156128e8576128e761288d565b5b50919050565b7f4552433732313a20617070726f76656420717565727920666f72206e6f6e657860008201527f697374656e7420746f6b656e0000000000000000000000000000000000000000602082015250565b600061294a602c836121a5565b9150612955826128ee565b604082019050919050565b600060208201905081810360008301526129798161293d565b9050919050565b7f4552433732313a207472616e736665722063616c6c6572206973206e6f74206f60008201527f776e6572206e6f7220617070726f766564000000000000000000000000000000602082015250565b60006129dc6031836121a5565b91506129e782612980565b604082019050919050565b60006020820190508181036000830152612a0b816129cf565b9050919050565b7f4f776e61626c653a2063616c6c6572206973206e6f7420746865206f776e6572600082015250565b6000612a486020836121a5565b9150612a5382612a12565b602082019050919050565b60006020820190508181036000830152612a7781612a3b565b9050919050565b7f4552433732314d657461646174613a2055524920717565727920666f72206e6f60008201527f6e6578697374656e7420746f6b656e0000000000000000000000000000000000602082015250565b6000612ada602f836121a5565b9150612ae582612a7e565b604082019050919050565b60006020820190508181036000830152612b0981612acd565b9050919050565b600081905092915050565b6000612b268261219a565b612b308185612b10565b9350612b408185602086016121b6565b80840191505092915050565b6000612b588285612b1b565b9150612b648284612b1b565b91508190509392505050565b7f4f776e61626c653a206e6577206f776e657220697320746865207a65726f206160008201527f6464726573730000000000000000000000000000000000000000000000000000602082015250565b6000612bcc6026836121a5565b9150612bd782612b70565b604082019050919050565b60006020820190508181036000830152612bfb81612bbf565b9050919050565b7f796f75206e65656420302e30303030312045544820746f20707572636861736560008201527f20776166666c6500000000000000000000000000000000000000000000000000602082015250565b6000612c5e6027836121a5565b9150612c6982612c02565b604082019050919050565b60006020820190508181036000830152612c8d81612c51565b9050919050565b7f4552433732313a206f70657261746f7220717565727920666f72206e6f6e657860008201527f697374656e7420746f6b656e0000000000000000000000000000000000000000602082015250565b6000612cf0602c836121a5565b9150612cfb82612c94565b604082019050919050565b60006020820190508181036000830152612d1f81612ce3565b9050919050565b7f4e487b7100000000000000000000000000000000000000000000000000000000600052601160045260246000fd5b6000612d6082612255565b91507fffffffffffffffffffffffffffffffffffffffffffffffffffffffffffffffff821415612d9357612d92612d26565b5b600182019050919050565b6000612da982612255565b91506000821415612dbd57612dbc612d26565b5b600182039050919050565b7f4552433732313a20617070726f766520746f2063616c6c657200000000000000600082015250565b6000612dfe6019836121a5565b9150612e0982612dc8565b602082019050919050565b60006020820190508181036000830152612e2d81612df1565b9050919050565b7f4552433732313a207472616e7366657220746f206e6f6e20455243373231526560008201527f63656976657220696d706c656d656e7465720000000000000000000000000000602082015250565b6000612e906032836121a5565b9150612e9b82612e34565b604082019050919050565b60006020820190508181036000830152612ebf81612e83565b9050919050565b7f4e487b7100000000000000000000000000000000000000000000000000000000600052601260045260246000fd5b6000612f0082612255565b9150612f0b83612255565b925082612f1b57612f1a612ec6565b5b828204905092915050565b6000612f3182612255565b9150612f3c83612255565b925082821015612f4f57612f4e612d26565b5b828203905092915050565b6000612f6582612255565b9150612f7083612255565b925082612f8057612f7f612ec6565b5b828206905092915050565b6000612f9682612255565b9150612fa183612255565b9250827fffffffffffffffffffffffffffffffffffffffffffffffffffffffffffffffff03821115612fd657612fd5612d26565b5b828201905092915050565b7f4e487b7100000000000000000000000000000000000000000000000000000000600052603260045260246000fd5b7f4552433732313a206f776e657220717565727920666f72206e6f6e657869737460008201527f656e7420746f6b656e0000000000000000000000000000000000000000000000602082015250565b600061306c6029836121a5565b915061307782613010565b604082019050919050565b6000602082019050818103600083015261309b8161305f565b9050919050565b600081519050919050565b600082825260208201905092915050565b60006130c9826130a2565b6130d381856130ad565b93506130e38185602086016121b6565b6130ec816121e9565b840191505092915050565b600060808201905061310c60008301876122ea565b61311960208301866122ea565b61312660408301856123ef565b818103606083015261313881846130be565b905095945050505050565b6000815190506131528161210b565b92915050565b60006020828403121561316e5761316d6120d5565b5b600061317c84828501613143565b91505092915050565b600060608201905061319a60008301866123ef565b6131a760208301856122ea565b81810360408301526131b981846121fa565b9050949350505050565b60006131ce826123d3565b91506131d9836123d3565b9250826131e9576131e8612ec6565b5b828206905092915050565b60006131ff826123d3565b915061320a836123d3565b92508260ff038211156132205761321f612d26565b5b828201905092915050565b7f4552433732313a206d696e7420746f20746865207a65726f2061646472657373600082015250565b60006132616020836121a5565b915061326c8261322b565b602082019050919050565b6000602082019050818103600083015261329081613254565b9050919050565b7f4552433732313a20746f6b656e20616c7265616479206d696e74656400000000600082015250565b60006132cd601c836121a5565b91506132d882613297565b602082019050919050565b600060208201905081810360008301526132fc816132c0565b905091905056fea2646970667358221220db0519ebce89b70e9a6f3db25b0c03024c72b65e14f0db28f549a7ae1f2d704b64736f6c634300080b0033",
  "immutableReferences": {},
  "source": "// SPDX-License-Identifier: MIT\npragma solidity ^0.8.0;\n\nimport \"./Waffle.sol\";\nimport \"./WaffleOwnership.sol\";\n\n// @dev      \ncontract WaffleToken is Waffle, WaffleOwnership {\n\n\n    // @notice WaffleTokens are first minted for students in waffleStudio (https://wafflestudio.com/)\n    // @dev TODO   10     .\n    constructor() ERC721(\"WaffleToken\", \"WFTK\") {\n        // TODO D_APP   URI \n        setBaseURI(\"\");\n\n        for (uint8 i = 0; i < 10; i++) {\n        // @dev TODO  int2str string concat    .. \n            string memory title = string(\"waffle NFT #\"); \n            _mintNewWaffle(title);\n        }\n    }\n\n\n    // @dev  Waffle  \n    function _mintNewWaffle(string memory title) internal {\n        uint8 size;\n        uint8 baseColor;\n        uint8[2] memory verticals;\n        uint8[2] memory horizontals;\n        uint256 toppings;\n        (size, baseColor, verticals, horizontals, toppings) = _createRandomWaffle(title); \n        waffles.push(MetaData(title, size, baseColor, verticals, horizontals, toppings));\n        uint tokenId = waffles.length - 1; //  .push()    \n        _safeMint(msg.sender, tokenId);\n    }\n\n    // @notice bake a new waffle with your ETH\n    function claim(string calldata title) external payable {\n        require(msg.value == 0.00001 ether, \"you need 0.00001 ETH to purchase waffle\");\n        _mintNewWaffle(title);\n        payable(owner()).transfer(0.00001 ether);\n    }\n}\n",
  "sourcePath": "/home/jeongdaeyong/Desktop/SMARTCONTRACT/week3/localTest/NFT/contracts/WaffleToken.sol",
  "compiler": {
    "name": "solc",
    "version": "0.8.11+commit.d7f03943.Emscripten.clang"
  },
  "schemaVersion": "3.4.4",
  "updatedAt": "2022-01-21T10:52:53.773Z",
  "networkType": "ethereum",
  "devdoc": {
    "kind": "dev",
    "methods": {
      "getApproved(uint256)": {
        "details": "See {IERC721-getApproved}."
      },
      "isApprovedForAll(address,address)": {
        "details": "See {IERC721-isApprovedForAll}."
      },
      "name()": {
        "details": "See {IERC721Metadata-name}."
      },
      "owner()": {
        "details": "Returns the address of the current owner."
      },
      "renounceOwnership()": {
        "details": "Leaves the contract without owner. It will not be possible to call `onlyOwner` functions anymore. Can only be called by the current owner. NOTE: Renouncing ownership will leave the contract without an owner, thereby removing any functionality that is only available to the owner."
      },
      "safeTransferFrom(address,address,uint256)": {
        "details": "See {IERC721-safeTransferFrom}."
      },
      "safeTransferFrom(address,address,uint256,bytes)": {
        "details": "See {IERC721-safeTransferFrom}."
      },
      "setApprovalForAll(address,bool)": {
        "details": "See {IERC721-setApprovalForAll}."
      },
      "supportsInterface(bytes4)": {
        "details": "See {IERC165-supportsInterface}."
      },
      "symbol()": {
        "details": "See {IERC721Metadata-symbol}."
      },
      "tokenURI(uint256)": {
        "details": "See {IERC721Metadata-tokenURI}."
      },
      "transferFrom(address,address,uint256)": {
        "details": "See {IERC721-transferFrom}."
      },
      "transferOwnership(address)": {
        "details": "Transfers ownership of the contract to a new account (`newOwner`). Can only be called by the current owner."
      }
    },
    "version": 1
  },
  "userdoc": {
    "kind": "user",
    "methods": {},
    "version": 1
  }
}