{
  "contractName": "Waffle",
  "abi": [
    {
      "anonymous": false,
      "inputs": [
        {
          "indexed": true,
          "internalType": "address",
          "name": "previousOwner",
          "type": "address"
        },
        {
          "indexed": true,
          "internalType": "address",
          "name": "newOwner",
          "type": "address"
        }
      ],
      "name": "OwnershipTransferred",
      "type": "event"
    },
    {
      "inputs": [],
      "name": "owner",
      "outputs": [
        {
          "internalType": "address",
          "name": "",
          "type": "address"
        }
      ],
      "stateMutability": "view",
      "type": "function"
    },
    {
      "inputs": [],
      "name": "renounceOwnership",
      "outputs": [],
      "stateMutability": "nonpayable",
      "type": "function"
    },
    {
      "inputs": [
        {
          "internalType": "address",
          "name": "newOwner",
          "type": "address"
        }
      ],
      "name": "transferOwnership",
      "outputs": [],
      "stateMutability": "nonpayable",
      "type": "function"
    },
    {
      "inputs": [
        {
          "internalType": "uint256",
          "name": "",
          "type": "uint256"
        }
      ],
      "name": "waffleToOwner",
      "outputs": [
        {
          "internalType": "address",
          "name": "",
          "type": "address"
        }
      ],
      "stateMutability": "view",
      "type": "function"
    },
    {
      "inputs": [
        {
          "internalType": "uint256",
          "name": "",
          "type": "uint256"
        }
      ],
      "name": "waffles",
      "outputs": [
        {
          "internalType": "string",
          "name": "title",
          "type": "string"
        },
        {
          "internalType": "uint8",
          "name": "size",
          "type": "uint8"
        },
        {
          "internalType": "uint8",
          "name": "baseColor",
          "type": "uint8"
        },
        {
          "internalType": "uint256",
          "name": "toppings",
          "type": "uint256"
        }
      ],
      "stateMutability": "view",
      "type": "function"
    },
    {
      "inputs": [
        {
          "internalType": "string",
          "name": "baseURI",
          "type": "string"
        }
      ],
      "name": "setBaseURI",
      "outputs": [],
      "stateMutability": "nonpayable",
      "type": "function"
    }
  ],
  "bytecode": "0x608060405234801561001057600080fd5b5061002d61002261003260201b60201c565b61003a60201b60201c565b6100fe565b600033905090565b60008060009054906101000a900473ffffffffffffffffffffffffffffffffffffffff169050816000806101000a81548173ffffffffffffffffffffffffffffffffffffffff021916908373ffffffffffffffffffffffffffffffffffffffff1602179055508173ffffffffffffffffffffffffffffffffffffffff168173ffffffffffffffffffffffffffffffffffffffff167f8be0079c531659141344cd1fd0a4f28419497f9722a3daafe3b4186f6b6457e060405160405180910390a35050565b610b3c8061010d6000396000f3fe608060405234801561001057600080fd5b50600436106100625760003560e01c8063254f3bce1461006757806355f804b31461009a578063715018a6146100b65780638da5cb5b146100c0578063afd805dc146100de578063f2fde38b1461010e575b600080fd5b610081600480360381019061007c9190610637565b61012a565b6040516100919493929190610728565b60405180910390f35b6100b460048036038101906100af91906108a9565b61020c565b005b6100be6102a2565b005b6100c861032a565b6040516100d59190610933565b60405180910390f35b6100f860048036038101906100f39190610637565b610353565b6040516101059190610933565b60405180910390f35b6101286004803603810190610123919061097a565b610386565b005b6001818154811061013a57600080fd5b906000526020600020906005020160009150905080600001805461015d906109d6565b80601f0160208091040260200160405190810160405280929190818152602001828054610189906109d6565b80156101d65780601f106101ab576101008083540402835291602001916101d6565b820191906000526020600020905b8154815290600101906020018083116101b957829003601f168201915b5050505050908060010160009054906101000a900460ff16908060010160019054906101000a900460ff16908060040154905084565b61021461047e565b73ffffffffffffffffffffffffffffffffffffffff1661023261032a565b73ffffffffffffffffffffffffffffffffffffffff1614610288576040517f08c379a000000000000000000000000000000000000000000000000000000000815260040161027f90610a54565b60405180910390fd5b806004908051906020019061029e92919061054a565b5050565b6102aa61047e565b73ffffffffffffffffffffffffffffffffffffffff166102c861032a565b73ffffffffffffffffffffffffffffffffffffffff161461031e576040517f08c379a000000000000000000000000000000000000000000000000000000000815260040161031590610a54565b60405180910390fd5b6103286000610486565b565b60008060009054906101000a900473ffffffffffffffffffffffffffffffffffffffff16905090565b60026020528060005260406000206000915054906101000a900473ffffffffffffffffffffffffffffffffffffffff1681565b61038e61047e565b73ffffffffffffffffffffffffffffffffffffffff166103ac61032a565b73ffffffffffffffffffffffffffffffffffffffff1614610402576040517f08c379a00000000000000000000000000000000000000000000000000000000081526004016103f990610a54565b60405180910390fd5b600073ffffffffffffffffffffffffffffffffffffffff168173ffffffffffffffffffffffffffffffffffffffff161415610472576040517f08c379a000000000000000000000000000000000000000000000000000000000815260040161046990610ae6565b60405180910390fd5b61047b81610486565b50565b600033905090565b60008060009054906101000a900473ffffffffffffffffffffffffffffffffffffffff169050816000806101000a81548173ffffffffffffffffffffffffffffffffffffffff021916908373ffffffffffffffffffffffffffffffffffffffff1602179055508173ffffffffffffffffffffffffffffffffffffffff168173ffffffffffffffffffffffffffffffffffffffff167f8be0079c531659141344cd1fd0a4f28419497f9722a3daafe3b4186f6b6457e060405160405180910390a35050565b828054610556906109d6565b90600052602060002090601f01602090048101928261057857600085556105bf565b82601f1061059157805160ff19168380011785556105bf565b828001600101855582156105bf579182015b828111156105be5782518255916020019190600101906105a3565b5b5090506105cc91906105d0565b5090565b5b808211156105e95760008160009055506001016105d1565b5090565b6000604051905090565b600080fd5b600080fd5b6000819050919050565b61061481610601565b811461061f57600080fd5b50565b6000813590506106318161060b565b92915050565b60006020828403121561064d5761064c6105f7565b5b600061065b84828501610622565b91505092915050565b600081519050919050565b600082825260208201905092915050565b60005b8381101561069e578082015181840152602081019050610683565b838111156106ad576000848401525b50505050565b6000601f19601f8301169050919050565b60006106cf82610664565b6106d9818561066f565b93506106e9818560208601610680565b6106f2816106b3565b840191505092915050565b600060ff82169050919050565b610713816106fd565b82525050565b61072281610601565b82525050565b6000608082019050818103600083015261074281876106c4565b9050610751602083018661070a565b61075e604083018561070a565b61076b6060830184610719565b95945050505050565b600080fd5b600080fd5b7f4e487b7100000000000000000000000000000000000000000000000000000000600052604160045260246000fd5b6107b6826106b3565b810181811067ffffffffffffffff821117156107d5576107d461077e565b5b80604052505050565b60006107e86105ed565b90506107f482826107ad565b919050565b600067ffffffffffffffff8211156108145761081361077e565b5b61081d826106b3565b9050602081019050919050565b82818337600083830152505050565b600061084c610847846107f9565b6107de565b90508281526020810184848401111561086857610867610779565b5b61087384828561082a565b509392505050565b600082601f8301126108905761088f610774565b5b81356108a0848260208601610839565b91505092915050565b6000602082840312156108bf576108be6105f7565b5b600082013567ffffffffffffffff8111156108dd576108dc6105fc565b5b6108e98482850161087b565b91505092915050565b600073ffffffffffffffffffffffffffffffffffffffff82169050919050565b600061091d826108f2565b9050919050565b61092d81610912565b82525050565b60006020820190506109486000830184610924565b92915050565b61095781610912565b811461096257600080fd5b50565b6000813590506109748161094e565b92915050565b6000602082840312156109905761098f6105f7565b5b600061099e84828501610965565b91505092915050565b7f4e487b7100000000000000000000000000000000000000000000000000000000600052602260045260246000fd5b600060028204905060018216806109ee57607f821691505b60208210811415610a0257610a016109a7565b5b50919050565b7f4f776e61626c653a2063616c6c6572206973206e6f7420746865206f776e6572600082015250565b6000610a3e60208361066f565b9150610a4982610a08565b602082019050919050565b60006020820190508181036000830152610a6d81610a31565b9050919050565b7f4f776e61626c653a206e6577206f776e657220697320746865207a65726f206160008201527f6464726573730000000000000000000000000000000000000000000000000000602082015250565b6000610ad060268361066f565b9150610adb82610a74565b604082019050919050565b60006020820190508181036000830152610aff81610ac3565b905091905056fea2646970667358221220f88d63ffec3fd4cd3e1c80316e91c1d4bd1e7b4fe718e31e49d57d839109e3e964736f6c634300080b0033",
  "immutableReferences": {},
  "source": "// SPDX-License-Identifier: MIT\npragma solidity >=0.4.22 <0.9.0;\n\nimport \"@openzeppelin/contracts/access/Ownable.sol\";\nimport \"@openzeppelin/contracts/token/ERC721/ERC721.sol\";\n\n// @dev  NFT  .      \ncontract Waffle is Ownable {\n\n    /**\n        title:  \n        size:   (1 )\n        baseColor:   \n        verticals:  \n        horizontals:  \n        toppings:   ( dna)\n\n        === verticals & horizontals\n        - msb => 1~5 (  )\n          *     = 100  ( 1~5  2, 5C2 = 10 )\n        - lsb =>  16 (x0 ~xF)\n        - (uint8) horizontals[0] = x01 ~ xF5\n        @dev TODO        \n    */\n    struct MetaData {\n        string title;\n        uint8 size;\n        uint8 baseColor;\n        uint8[2] verticals;\n        uint8[2] horizontals;\n        uint256 toppings;\n    }\n\n    MetaData[] public waffles;\n    mapping(uint256 => address) public waffleToOwner;\n    mapping(address => uint256) ownerWaffleCount;\n\n    // @dev TODO       \n    string private _currentBaseURI;\n\n    function setBaseURI(string memory baseURI) public onlyOwner {\n        _currentBaseURI = baseURI;\n    }\n\n    /**\n        baseColor, size   (?)\n        @dev TODO   ,    \n    */\n    function _createRandomWaffle(string memory title) internal returns (uint8, uint8, uint8[2] memory, uint8[2] memory, uint256) {\n        uint8 size = 1;\n        uint8 baseColor = 1;\n        uint256 toppings = _getRandom(title);\n        uint8[2] memory verticals;\n        verticals[0] = _getRandomLine(title);\n        verticals[1] = _getRandomLine(title);\n        uint8[2] memory horizontals;\n        horizontals[0] = _getRandomLine(title);\n        horizontals[1] = _getRandomLine(title);\n        return (size, baseColor, verticals, horizontals, toppings); //  return \n    }\n\n    function _getRandomLine(string memory title) internal returns(uint8) {\n        return uint8(_getRandom(title)) % 5 + 1;\n    }\n\n\n    // @dev pseudo random \n    function _getRandom(string memory title) internal returns(uint256) {\n        return uint(keccak256(abi.encode(block.timestamp, msg.sender, title)));\n    }\n}",
  "sourcePath": "/home/jeongdaeyong/Desktop/SMARTCONTRACT/week3/localTest/NFT/contracts/Waffle.sol",
  "compiler": {
    "name": "solc",
    "version": "0.8.11+commit.d7f03943.Emscripten.clang"
  },
  "schemaVersion": "3.4.4",
  "updatedAt": "2022-01-21T10:44:21.827Z",
  "devdoc": {
    "kind": "dev",
    "methods": {
      "owner()": {
        "details": "Returns the address of the current owner."
      },
      "renounceOwnership()": {
        "details": "Leaves the contract without owner. It will not be possible to call `onlyOwner` functions anymore. Can only be called by the current owner. NOTE: Renouncing ownership will leave the contract without an owner, thereby removing any functionality that is only available to the owner."
      },
      "transferOwnership(address)": {
        "details": "Transfers ownership of the contract to a new account (`newOwner`). Can only be called by the current owner."
      }
    },
    "version": 1
  },
  "userdoc": {
    "kind": "user",
    "methods": {},
    "version": 1
  }
}